:020000040800F2
:103000002033002009310008BF640008ED5100089A
:10301000395C0008DF400008FF9200080000000053
:1030200000000000000000000000000035820008E1
:10303000354B000800000000256D00087D8A00085F
:103040002331000823310008233100082331000810
:103050002331000823310008494D000823310008BE
:1030600023310008233100082331000823310008F0
:1030700023310008233100082331000823310008E0
:1030800023310008233100082331000823310008D0
:1030900091920008233100082331000823310008F1
:1030A00023310008233100082331000823310008B0
:1030B00023310008D98A00086D8B000823310008ED
:1030C0002331000823310008233100082331000890
:1030D00023310008233100083D8F00082331000808
:1030E000614D000823310008519100082331000888
:1030F00023310008DFF80CD000F036FD004800470F
:10310000C5F70008203300200648804706480047DE
:10311000FEE7FEE7FEE7FEE7FEE7FEE7FEE7FEE787
:10312000FEE7FEE7818A0008F530000840EA010367
:103130009B0703D009E008C9121F08C0042AFAD26D
:1031400003E011F8013B00F8013B521EF9D2704731
:10315000D2B201E000F8012B491EFBD270470022D9
:10316000F6E710B513460A4604461946FFF7F0FF86
:10317000204610BD30B505462A460B4612F8010B15
:1031800013F8014B08B1A042F8D01CB1002802D0BE
:103190006D1CF1E7284630BD10B5002200E0521C3E
:1031A000835C8C5CA34201D1002BF8D1D8B2E1B290
:1031B000401A10BDF0B480EA0102D40F4200B2EB15
:1031C000410F02D20246084611464A0042D0C30DC2
:1031D000DDB2C1F3C752AD1A202D35DAC1F31601A5
:1031E00041F4000204B15242C5F1200602FA06F190
:1031F0002A411044B3EBD05F23D0C4B1012DA0EB22
:10320000C35009DCF0BC4FF0004202EAC352DBB20B
:1032100000F5000000F0B5BB400000F1807000EB4D
:10322000C350A0F1807040EAD170490009E049081C
:1032300041EAC071A0EBC35000F50000400800EB6C
:10324000C350F0BC00F094BB6142012202EB41018B
:10325000001BF6E7F0BC704781F00041AAE780F060
:103260000040A7E780EA010210B502F000434000E9
:1032700022D04A001FD0010E01EB1261C0F35600AC
:10328000C2F3560240F4000042F40002A0FB022008
:1032900000047F39140400D0401C50EA124001D4CD
:1032A0004000491EC2B20C0604EBD010401C40087E
:1032B000802A02D003E0002010BD20F00100002988
:1032C00000DA0020184310BD30B480EA010202F099
:1032D000004530F0004221F0004013D090B1C30D02
:1032E000D40DC2F31601C0F31600E41A41F4000134
:1032F00040F400027D34914201D3641C00E0490097
:10330000002C02DA30BC002070474FF4000000238C
:10331000914201D3891A034340084FEA4101F7D192
:1033200051B1914202D14FF0004105E002D24FF07D
:10333000010101E06FF0010103EBC450284430BCEF
:1033400000F016BB420005D0C0F3C7525242914272
:1033500001DC0020704700EBC15070472DE9FE4FA3
:10336000804681EA0300C00F0C46009021F0004126
:1033700023F00045B8EB0200A94105D240462146A2
:1033800090461C460B46024623F00040104347D0AF
:10339000270DC7F30A00C3F30A510290401A0190A7
:1033A00040286BDAC3F3130040F4801B0098924668
:1033B00020B10023D2EB030A63EB0B0B01985946B3
:1033C000C0F14002504600F0A2FA06460D465046B3
:1033D0005946019A00F0BAFA10EB08006141002446
:1033E00087EA115284EAE7731A4340D0009A62B325
:1033F000019A012A4FEA075215DC001B61EB02011A
:103400004FF0004202EA0752CDE90042001C41F5AC
:10341000801132462B4600F0EFFA03B0BDE8F08F82
:1034200040462146F9E7001B61EB0201001C41F513
:10343000801300185B412018A2F5001747EB030129
:1034400040EAD570B6196D4111E06D084FEA3606B5
:1034500045EAC0754FEA0752001B61EB0201001CF0
:1034600041F5801149084FEA3000001951413246B8
:103470002B4603B0BDE8F04F00F0B1BA009801222E
:1034800040000023D0EB020263EBE073009821467A
:103490004FEAE074B8EB000061EB0401E9E783F068
:1034A00000435BE781F0004158E72DE9FE4F81EAD8
:1034B000030404F0004421F0004100944FF0000B9D
:1034C00023F0004350EA01045ED052EA03045BD0CB
:1034D000C3F30A54C1F30A552C44A4F2F334019403
:1034E000A0FB0254C1F3130141F48011C3F3130391
:1034F00043F4801301FB024400FB034E840A970A45
:1035000044EA815447EA8357A4FB076802958D0A71
:1035100005FB07854FEA932C04FB0C542705029DFD
:103520004FEA065847EA1637B5EB08056EEB070C6D
:10353000870E920E47EA811742EA8312A7FB020127
:10354000B6EB0B0164EB00042B0D43EA0C335E1861
:1035500044EB1C50DA465146E7FB0201C5F3130465
:103560004FEA0B3343EA14534FEA0432019C43EA17
:103570000603A4F10C040294009CCDE900B400F011
:103580003BFA03B0BDE8F08F00200146F9E72DE9D2
:10359000F04D81EA030404F0004B21F0004514468D
:1035A0004FF0000A23F0004150EA050220D054EA0F
:1035B00001021DD0C5F30A570246C5F31303C1F338
:1035C0001300C1F30A5640F4801543F48013A7EBAF
:1035D0000608101BD64608F2FD3873EB050002D32F
:1035E00008F1010801E092185B41B8F1000F03DA1D
:1035F00000200146BDE8F08D00204FF48011064602
:1036000084460EE0171B73EB050705D3121B63EB13
:10361000050306434CEA010C49084FEA30009218B2
:103620005B4150EA0107EDD152EA030012D082EA71
:10363000040083EA0501084305D0101BAB4106D204
:103640000122002306E000224FF0004302E06FF069
:10365000010253101AEB06004CEB085110EB0A0064
:1036600041EB0B01BDE8F04D00F0B9B970B521F0A8
:10367000004303430CD0C1F30A550024D5EB0405E5
:1036800064EB0403D617AD1AB34102DB00200146F8
:1036900070BD201841EB025170BDC10F80EAE0708F
:1036A0000844CA079623002100F06BB99623002234
:1036B000114600F066B90EB5C10F80EAE07008440B
:1036C000CA07002140F233438DE80E000A460B463C
:1036D00000F092F903B000BD0EB540F23341029103
:1036E0000021CDE900110A460B4600F085F903B030
:1036F00000BD00F0004220F00040C10DC0F31600F4
:1037000040F400007F2901DA00207047962903DC8D
:10371000C1F19601C84001E096398840002AF4D0F2
:103720004042704720F00040C10DC0F3160040F445
:1037300000007F2901DA00207047962903DCC1F1DF
:103740009601C840704796398840704770B5C1F3FC
:103750000A5201F000450024C1F3130140F2FF3387
:1037600041F480119A4201DA002070BD40F23343E7
:103770009A42A2F2334203DC524200F0D7F800E052
:1037800090402C43F1D0404270BDC1F30A5210B5B5
:10379000C1F3130140F2FF3341F480119A4201DA80
:1037A000002010BD40F233439A42A2F2334203DCC0
:1037B000524200F0BBF810BD904010BD00F0004236
:1037C00030F000400AD0C10D01F56071C0F3160061
:1037D00042EA0151C20840071143704700200146E8
:1037E0007047000030B5002904DB4FF00044404230
:1037F00064EB0101002B04DB4FF00044524264EB08
:1038000003038B4208BF824230BD000030B500295F
:1038100004DB4FF00044404264EB0101002B04DB69
:103820004FF00044524264EB0303994208BF9042B8
:1038300030BD000001F0004330B421F0004150EAF7
:10384000010206D00A0DA2F56072C1F31301002A2D
:1038500002DC30BC00207047440F44EAC104C100C0
:10386000E01830BC00EBC25000F082B8002801DB49
:10387000C0F10040002901DBC1F1004188427047DE
:1038800030B50B46014600202022012409E021FA30
:1038900002F59D4205D303FA02F5491B04FA02F52D
:1038A0002844151EA2F10102F1DC30BD2DE9F05FC4
:1038B0000546002092469B4688460646814640249F
:1038C0001BE0284641464746224600F02FF8534663
:1038D0005A46C01A914110D311461846224600F0AC
:1038E00016F82D1A67EB01084F46224601200021E9
:1038F00000F00DF817EB00094E41201EA4F1010461
:10390000DFDC484631462A464346BDE8F09F202A80
:1039100004DB203A00FA02F1002070479140C2F126
:10392000200320FA03F3194390407047202A04DB58
:10393000203A21FA02F00021704721FA02F3D04028
:10394000C2F120029140084319467047202A06DB45
:10395000CB17203A41FA02F043EAE07306E041FA5D
:1039600002F3D040C2F1200291400843194670474B
:103970000029A8BF7047401C490008BF20F0010083
:10398000704710B4B0FA80FC00FA0CF050EA010461
:1039900004BF10BC704749B1CCF1200421FA04F4F3
:1039A00011FA0CF118BF012121430843A3EB0C01CC
:1039B000CB1D4FEA00614FEA102042BF002010BC2F
:1039C000704700EBC35010440029A4BF10BC7047DF
:1039D000401C490008BF20F0010010BC704710B522
:1039E000002B08DA401C41F1000192185B411A4398
:1039F00001D120F0010010BD2DE9F04D92469B460B
:103A000011B1B1FA81F202E0B0FA80F220329046B0
:103A1000FFF77DFF04460F4640EA0A0041EA0B012A
:103A200053465A46084313D0114653EA010019D0B1
:103A3000C8F140025046FFF779FF05460E46504652
:103A400059464246FFF763FF084305D0012004E0D2
:103A500020463946BDE8F08D0020054346EAE07671
:103A60002C4337430A986305E40AA0EB08000022C0
:103A7000FD0A44EA47540A3002D500200146E9E72E
:103A8000010510196941DDE9084500196941BDE8E2
:103A9000F04DA4E72DE9F04D00231A461B1A8A4188
:103AA00003DB00200146BDE8F08DC1F30A52C1F3EB
:103AB000130141F480154FF0000BD10702D100181B
:103AC0006D41521E0027044640F2FF11384601EBBB
:103AD000620A3E468046024600204FF48011FFF7FE
:103AE00025FFC2197141BB1846EB0100B4EB030C72
:103AF00075EB000C04D3E41A65EB000517460E467F
:103B0000241908F101006D4180463428E3DDF919DC
:103B100046EB0600091BA84103D24FF0FF321346C3
:103B200001E0002213461BEB070046EB0A51BDE8FB
:103B3000F04DFFF754BFC1F30A52C1F3130140F235
:103B4000FF3341F480119A4202DA002001467047A7
:103B500040F233439A42A2F2334202DC5242FFF770
:103B6000E5BEFFF7D4BE0000064C074D06E0E06856
:103B700040F0010394E8070098471034AC42F6D3B4
:103B8000FFF7BCFA74F1010894F1010870B58C18C4
:103B900010F8015B15F0070301D110F8013B2A1161
:103BA00006D110F8012B03E010F8016B01F8016B4E
:103BB0005B1EF9D12B0705D40023521E0DD401F84A
:103BC000013BFAE710F8013BCB1A921C03E013F813
:103BD000015B01F8015B521EF9D5A142D8D3002048
:103BE00070BD0029816802D041F0010101E021F09F
:103BF000010181607047000010B588B0012003F01A
:103C000093F90121022003F0C7F84FF40040069019
:103C100003208DF81C0000248DF81F4006A92548BC
:103C200001F077F90121480203F0CEF8684600F070
:103C300026F900948DF804400120029404941E4C4F
:103C40008DF805008DF814006946204600F078F8DC
:103C5000052301221521204600F0A0F8102120465E
:103C600000F05EF801224FF44031204600F08EF85B
:103C700001212046FFF7B5FF10A005F0BDFB402154
:103C8000204600F056F80028F9D013A005F0B4FB48
:103C9000204600F0EFF815A005F0AEFB022120460B
:103CA00000F047F80028F9D017A005F0A5FB08B0F0
:103CB00010BD000000040240002401400D0A204114
:103CC00044435F436D6428414443312C20454E41B9
:103CD000424C4529000000000D0A204144435F4644
:103CE0004C41475F41444F4E530000000D0A2041B4
:103CF00044435F536F667477617265537461727485
:103D0000436F6E76000000000D0A204144435F4778
:103D10006574466C616753746174757300000000CC
:103D2000826822F0F0020A4382607047806D80B2A0
:103D300070470246002012680A4200D001207047F6
:103D400030B542680F4B0C791A400B6842EA0422E6
:103D50001343436082680C4B4D791A40D1E9034309
:103D600023438C6844EA4504234313438360026B76
:103D7000097D22F0F872491EC9B242EA015101637D
:103D800030BD0000FFFEFFFCFDF7FFC0002A4268C7
:103D900001D00A4300E08A434260704770B50724AF
:103DA0001D290AD9C56DA1F11E0606EB4606B440D1
:103DB000A543B3401D43C56521E013290AD9C56851
:103DC000A1F1140606EB4606B440A543B3401D43DB
:103DD000C56014E009290AD90569A1F10A0606EBB4
:103DE0004606B440A543B3401D43056107E045695D
:103DF00001EB4106B440A543B3401D4345611F2379
:103E0000072A09D2046C521E02EB820293409C43A3
:103E100091400C43046470BD0D2A09D2C46BD21FBB
:103E200002EB820293409C4391400C43C46370BDFB
:103E3000132A09D2846B0D3A02EB820293409C4311
:103E400091400C43846370BD192A09D2446B133A24
:103E500002EB820293409C4391400C43446370BD4B
:103E6000046B193A02EB820293409C4391400C434D
:103E7000046370BD816841F080418160704700211A
:103E80000160017141714FF04072C0E9021201619D
:103E900001210175704700002DE9FF47364D0020D4
:103EA00003AA29680B5C1354401CC0B20328F9D341
:103EB000324E002404EB44003044032203A913F0E3
:103EC000FDFB18B9641CE4B20C2CF3D32868641C05
:103ED000E6B202796FF02F01202A4AD0303A4379B6
:103EE00002EB820201EB42021A44D4B2827A407A97
:103EF000303800EB800001EB40001044204A12688B
:103F000013785578303B03EB830301EB43032B44D9
:103F1000DFB2D3781579303B03EB830301EB430326
:103F20002B4403F0FF08D3799279303A02EB8202F6
:103F300001EB4201194401F0FF09124922460D1D0F
:103F40000F7081F8018081F80290AC706E70E8709B
:103F500000F5FA6080B2314603F046F928708DE82A
:103F60008003E9782346324607A005F045FABDE80C
:103F7000FF874279303AB8E70C000020F6EB0108E1
:103F800008000020240300204175746F5F54696DA0
:103F9000655F5365742025642D25642D25642020DC
:103FA00025643A25643A25640A0000000F4810B5DC
:103FB000C069FFF772FB0E49FFF786F9FFF7FEFBBA
:103FC0004FF040420B4B10F0EDFEFFF733FC014683
:103FD0004FF07E50FFF740F90749FFF743F90749D3
:103FE000FFF740F9BDE81040FFF783BBEC0200206B
:103FF00080E6C547955BC83F002A2D470000204159
:1040000070B503F009FF094C0120C4F8A402052093
:1040100004F5287408F0ECFE2068054D6870002057
:104020006060052008F0E4FE687870BD00804042C2
:10403000EC02002070B5054603F002FF084CC4F8FE
:10404000A0520120C4F8A402052004F5287408F049
:10405000CFFE00206060BDE87040052008F0C8BEBB
:104060000080404210B501F023F9BDE81040FFF791
:10407000C7BF00000B4800B5007889B058B12422B2
:1040800009496846FFF752F8074810380FC807F08B
:10409000C5F909B000BD06F0DDFE09B05DF804EB1E
:1040A00000F072BBEC020020100D002010B578B1BA
:1040B0004FF48054012805D002280FD1102101208F
:1040C00004F0AAF92146BDE81040022004F05CB9D2
:1040D0001021BDE81040012004F09EB910BDFEE79C
:1040E0001CB54FF08044012818D002200090002019
:1040F0008DF804008DF807006946114800F009FFAB
:104100000021012002F054FE0021204604F0A8FD09
:104110000021204604F072FD00210CE009480068EF
:1041200090F83200002809D002F044FD0121204619
:1041300004F064FD0121204604F06AFD1CBD00006E
:104140000000024018000020C1B2000A40EA01202D
:104150007047000070B5614B614C00205988A4F194
:10416000400202E0155C2554401C0D468842F9D3FC
:104170005B48626820301F2D4260A268826007D0D1
:104180000220FFF793FF00202060607B1A2221E0CD
:10419000E17B282901D02A290AD1D4F81100227DF7
:1041A00000BA20F0FF0010435860E08A40BA9860DF
:1041B0004C4A2068904252D14B4A607B1268904230
:1041C00003D8A27B0AB1102A0DD90220FFF76EFF97
:1041D000607B2422052104F027FABDE8704000210D
:1041E000012004F003BA252958D01ADC152971D012
:1041F0000DDC08296ED005DCB9B3032936D00429BB
:104200002DD163E00A2965D0122928D132E01A396C
:104210000A2924D2DFE801F03632235E3223232339
:10422000233E8A2956D00EDC552953D006DC282996
:104230003CD02A2940D02F2911D143E05A2925D03A
:1042400088290CD146E0A82944D004DC8F2941D02C
:104250009E2904D13EE0AA293CD0AF293AD00220C1
:10426000FFF724FF607B2022B4E71BE0BDE870402D
:1042700003F05ABDBDE8704003F074BCBDE8704067
:1042800003F05EBDBDE8704003F0A6BCBDE8704021
:1042900003F09CBCBDE8704003F010BDBDE8704069
:1042A00003F0D4BCBDE8704003F04EBDD3E9011269
:1042B000BDE8704003F096BCD3E90112BDE8704040
:1042C00003F078BDBDE8704003F05ABDBDE8704012
:1042D00003F030BCBDE8704003F05EBCD8000020A5
:1042E000A4050020555342433C0100202DE9F84F1E
:1042F0000020ADF80000DFF834A14BF6BF7648F29D
:1043000080074A4D4A4C40F68F7848F60F7BDFF81D
:1043100024910AF1440A31E00888474A10F00F005E
:10432000107034D0454901EB8001D1F8002CADF874
:104330000020BDF8002012040BD5D1F8002C02EAB1
:104340000802C1F8002C3E4901EB800050F8040C33
:104350008047BDF80000000610D53748374900787F
:1043600001EB8001D1F8002C02EA0B02C1F8002C0D
:10437000344901EB800050F8040C8047DAF8000063
:104380004946A9F800000004C6D4BDE8F88F2868A3
:104390002080208800F030006080208800F44050A9
:1043A00020802868304080F4005080F0200038439E
:1043B00028600888C006286815D400EA0B00286029
:1043C00000F0CCFF26E02188890401D580F400505C
:1043D0006188C90626D46188890601D580F020004D
:1043E00038432860D1E7ADF80000BDF800000005B3
:1043F00006D5286800EA0800286004F039F909E0C9
:10440000BDF800000004B9D5286800EA080028605B
:1044100002F09CFB286821883040C904D3D580F481
:104420008050D0E780F01000D5E70000005C00402D
:104430009E020020000100208E020020005000405B
:1044400020010020040100202DE9F043064601462A
:104450008FB095A004F0D0FF984D994C4FF40067B1
:1044600040F23F684FF4E1397EB3022E73D0062E3E
:1044700070D0072E26D1002002F0FAFB202002F097
:1044800021FC0028FAD1384602F038FC102002F056
:1044900019FC0028FAD102F0EBFB002002F028FC06
:1044A000002000F001FD012002F0DAFB012002F003
:1044B00013FC04F0E5FA02F0B7FD82482860002002
:1044C000FFF70EFE0FB0BDE8F083FFE7002002F01B
:1044D000CFFB202002F0F6FB0028FAD1384602F08C
:1044E0000DFC102002F0EEFB0028FAD103F0BAFF19
:1044F000002002F0BDFB002002F0FAFB002000F0DB
:10450000D3FC012002F0ACFB012002F0E5FB1020FF
:1045100008F038FC4146632004F0D6FC484614F00D
:10452000D5FA4FF41641102004F032FD02F07CFD64
:1045300003F0CEFC2078032803D10120207002F084
:1045400096F8614828600020FFF7CAFDFFF754FB8A
:10455000B8E700E02EE000F06BFC002002F0BCFBAE
:10456000012002F0C5FB012200214FF4404003F07E
:104570009FFF40F2A311632004F0A6FC042008F082
:1045800001FC484614F0A2FA03F0A2FC02F0D2F8B3
:1045900002F04AFD4D4828600020FFF7A1FDFFF71B
:1045A0002BFB012002F064FB202002F08BFB002893
:1045B000FAD087E74648002505702846FFF790FDAA
:1045C000207818B12570032008F026FC0BF05AF86B
:1045D000002000F06DFD02F03BF803F07BFC00F0E2
:1045E000E7FC002002F078FB012002F081FB684626
:1045F00000F0AAF84FF0E0200561012211460020EA
:1046000003F056FF00F03AFF0121042002F082FB84
:104610000121002002F07EFB02F040FB03F022FFAC
:10462000384602F06BFB102002F04CFB0028FAD158
:1046300001F0CCF807982749086009982549083106
:1046400008600898091F08600A9922480C30016028
:104650000C982049143108600B98091F0860092044
:1046600004F0E2F9102008F08DFB002002F000FBBE
:10467000002002F03DFB002000F016FC012002F0BB
:10468000EFFA012002F028FB03F09AF901F07EF81E
:104690004146632004F018FC484614F017FA03F072
:1046A00067FC02F0C1FC0DE74D63755F53746174E4
:1046B000653A202564200D0A200000006C020020CD
:1046C000F70100200048E8010024F400D0FE3F007C
:1046D000100300201C380240810008480844D0F82C
:1046E000001C490409D5D0F8001C48F68F7211400F
:1046F0004CF280021143C0F8001C7047005000408B
:10470000810008480844D0F8001C490609D5D0F8B3
:10471000001C48F68F72114048F2C0021143C0F8E5
:10472000001C704700500040810006480144D1F849
:10473000000C48F68F62104048F280021043C1F826
:10474000000C70470050004030B50E490A68C26145
:104750000C4B08331A6842620C1D226802621A1D53
:1047600015688562074D14352D680563151D2D6884
:10477000C562042008601060800618600020206078
:1047800030BD00001C38024010B51248124C0078B1
:1047900020B1206890F87300032813D1FFF706FCBE
:1047A0000E490F4A0862126892F82830012B0AD08D
:1047B0001078012806D1206890F87320032A01D1CF
:1047C000C06F086210BD526A524202EB820200EBD7
:1047D0004200F6E7F901002014000020EC0200205E
:1047E0001800002010B504464FF4004000F074FBA0
:1047F000042801D10021216010BD70B505464FF499
:1048000000460C46304600F067FB042805D12C60BA
:104810003046BDE8704000F05FBB70BD05480068E1
:10482000C00705D00348044908300160034901600E
:1048300070470000043C0240EFCDAB890504030241
:104840002DE9F047DFF89480254F4FF03009D8F874
:10485000001001F11005088A0E7A08B9042E04D060
:10486000AC88A04215D8042614E01E48017801291E
:1048700003D00726102038802BE01B4A0021126845
:104880001A4B120403EBD2325160A7F8009001706A
:104890001FE00226844200D90446A96820468847C2
:1048A0008246002000F058FC01462246504604F0A3
:1048B00027FD2146002003F0A1FD2888001B288049
:1048C000688820446880A7F8009009494FF4405058
:1048D0000880D8F800000672BDE8F087900200203A
:1048E000A00200208A020020505C004000600040CE
:1048F0009E0200202DE9F047224EDFF88C80302701
:10490000356835F8100FA968A9B100B3AC888442A6
:1049100000D904462046884781462888001B288005
:10492000688820446880002000F0EAFB01462246A7
:10493000484602F02FF9288848B114494FF44050F6
:1049400008800021084603F059FDA8F80070288867
:10495000A988884201D3032001E020B105203168F5
:104960000872BDE8F0873168062008720849002007
:104970000968084A090402EBD1314860A8F80070C0
:10498000EFE7000090020020A00200209E0200201D
:10499000505C004000600040F8B55D4C5D4D09265C
:1049A0002068002729684278062A05D0AAB1082A7B
:1049B0004DD00A2A50D06BE00278520668D1807838
:1049C000012804D0022804D0032804D060E0C9697B
:1049D00056E0096A54E0496A52E04288B2BBC28894
:1049E000022A55D102798ABB0278530601D1838805
:1049F00033B102F07F02012A04D0022A0CD047E032
:104A000045493DE08A69407900219047F0B9206826
:104A1000807A0028F4D13BE0417901F00F0001F0E9
:104A200070020B063D4901EB8001D1F8001C03D553
:104A3000C1F30111090102E0C1F301310903384B4F
:104A40001B78834224D90AB90029D9D120E0007803
:104A500040061DD1334913E0027802F07F02012A9B
:104A600016D1827AA2B1428892B9027982B9C288FB
:104A7000012A0DD18A6940790021904740B92A491D
:104A800031B120684782816100208847002006E01C
:104A900029682068096940788847032813D021686D
:104AA0000A8AA2F57F43FF3B0BD002280ED06AB1E1
:104AB0000878000626D5C888009082420AD9088264
:104AC00018E00E72F8BD20680672F8BD4FF00800BD
:104AD0000872F8BD0ED22868144B90F82C00824260
:104AE00001D21F7006E0B2FBF0F400FB142008B9FD
:104AF00001201870286890F82C008882BDE8F840E2
:104B0000FFF79EBE03200872094900030880F8BD24
:104B100090020020940200206988000800500040A4
:104B2000A8010020FD870008418800088A020020B3
:104B30009E0200207047000010B5A4B04FF0FF3077
:104B40002290402101A8FEF70AFB402111A8FEF7A0
:104B500006FB002021900EA001230088ADF8040080
:104B600021A8009022AA11A901A811F02DFD044648
:104B700012F02AFB2CB1214606A004F03DFC24B023
:104B800010BD11A909A0219A04F036FCF7E7000036
:104B90002F00000046756E6374696F6E2066616950
:104BA0006C65642E20282575290D0A00666F756EC8
:104BB00064206F6C646573742066696C65203A25A7
:104BC000732E2025640D0A0010B5A4B04FF0FF30FD
:104BD0002290402101A8FEF7C2FA402111A8FEF759
:104BE000BEFA002418A021940088ADF8040012F049
:104BF000EBFA21A80090002322AA11A901A811F024
:104C0000E3FC010004D011A004F0F6FB24B010BDB9
:104C100011A915A0219A04F0EFFB2298401C2198BD
:104C200009D0012809DD11A809F078FA0028EDD192
:104C300012F0CAFAEAE70128E8DC124904200870F9
:104C400011480480E2E700002F00000046756E6303
:104C500074696F6E206661696C65642E2028257505
:104C600029200D0A00000000666F756E64206F6CCD
:104C7000646573742066696C65203A25732E25641B
:104C80000D0A0000F90100200A02002070B5284C2E
:104C900061680144616020780A2802D2401C2070BB
:104CA00070BD0B2091FBF0F0606081B221480025BF
:104CB00025700068B1F5486F0AD8FF2180F82C10E4
:104CC0001D48D0F83402F8B90620FFF7BDFB2CE0F0
:104CD00041F204030322994208D390F82D100129D0
:104CE00010D1016C81B9154901641EE040F60A73C8
:104CF00099420AD990F82D10012903D190F82C106F
:104D0000052912D080F82C200FE040F688629142ED
:104D100001D9022104E040F62E62914203D901211B
:104D200080F82C1001E080F82C50656070BD000008
:104D3000E4020020180000200000414220BF0200D1
:104D400000F0D2BE00F004BF10B5012000F028F83A
:104D5000002804D0BDE81040012000F01BB810BDB1
:104D600010B54FF40054204600F01AF800280DD07A
:104D70000748016891F82900012802D84FF4FA7019
:104D800088872046BDE8104000F004B810BD000040
:104D90001800002001490860704700001404014019
:104DA000064A014600201268044B0A4014331B686F
:104DB0000B4202D0002A00D00120704700040140BD
:104DC00030B51A498379026853B30B6893430B607B
:104DD0000A1D13680468A343136002790A44136828
:104DE000046823431360114A083213680468A3431C
:104DF0001360131D1C680568AC431C604479102CBB
:104E000005D021440A68006802430A6030BD116879
:104E1000046821431160196800680143196030BDBE
:104E20000079084401689143016030BD00040140ED
:104E30000149032008607047D00100200149086043
:104E400070470000183C0240084904200A68D20755
:104E500001D0012070470A68D20501D502207047B1
:104E6000096811F4F05FFAD003207047183C024043
:104E700005490028086802D040F0020001E020F057
:104E80000200086070470000003C0240054900280D
:104E9000086802D040F0040001E020F0040008603F
:104EA00070470000003C024005490028086802D015
:104EB00040F0080001E020F00800086070470000A2
:104EC000003C0240034A116821F0010101431160D6
:104ED00070470000003C024008B5034604208DF8EE
:104EE0000000FFF7B1FF8DF8000004E0FFF7ACFF12
:104EF0008DF800005B1E9DF80000012801D013B161
:104F000004E0002BF2D105208DF800009DF8000090
:104F100008BDF0B50023012403270D6804FA03F24D
:104F20001540954240D1D0F800C05E0007FA06F562
:104F30002CEA050CC0F800C091F804C0D0F800E0DD
:104F40000CFA06FC4CEA0E0CC0F800C091F804C044
:104F5000BCF1010F02D0BCF1020F1DD1D0F808C086
:104F60002CEA050CC0F808C091F805C0D0F808E09C
:104F70000CFA06FC4CEA0E0CC0F808C0B0F804C0ED
:104F80002CEA020CA0F804C0B0F804C08A799A4058
:104F90004CEA020CA0F804C0C268AA43C260CA79F5
:104FA000C568B2402A43C2605B1C102BB5D3F0BD6C
:104FB0002DE9FC41234C20682349244D08602868D2
:104FC000234E48603068234A88601068C860E068F3
:104FD00008611E480C30006848611D480C300068AC
:104FE00088611C480C300068C86100208DF80500FD
:104FF00003218DF804108DF806008DF80700401E7F
:105000004FF6FF7710604FF6EA7000906946204631
:10501000FFF77FFF0420009001208DF8070069460C
:105020002046FFF776FF4DF6FF7000906946304648
:10503000FFF76FFF694628460097FFF76AFFBDE854
:10504000FC81000000000240C00200200004024079
:1050500000080240000C02404B07DB0E9A40C908D2
:1050600010B500EB8100016A0F249C40A14301624E
:10507000016A1143016210BD41837047018370478B
:1050800070B50C46054601F00DF82146284600F0A3
:1050900089FF2146284600F0B5FF2146284601F049
:1050A00077F821462846BDE8704001F05DB9000060
:1050B0007CB506460121084601F06EFE00214FF442
:1050C00080740E48012E009407D08DF804108DF8DE
:1050D00007106946FFF71DFF7CBD01228DF80420F3
:1050E0008DF806108DF8071003218DF8051069461C
:1050F0000546FFF70EFF2C837CBD00000000024038
:105100000549096889B201EBC000044901EB400080
:10511000008980B270470000505C00400060004091
:105120000549096889B201EBC000044901EB400060
:105130008089C0F309007047505C00400060004067
:10514000044901EB8000D0F8000CC0F301300003EB
:1051500070470000005000400449096889B201EB23
:10516000C000034931F8100080B27047505C004025
:1051700000600040FEB505469C46DDE908070C4688
:10518000002361460A9E0FF053FC00210091CDE9F7
:10519000011623462A46394609F0C8F8FEBD00002C
:1051A00008B10448704704490120096808820020BA
:1051B000704700003C01002090020020094810B513
:1051C000D0E91414406E08180BD00822064900F0EC
:1051D00025F9054920460422BDE81040103100F0B1
:1051E0001DB910BD0000F81FE600002001A004F06A
:1051F00003F9FBE72A0000002DE9FC410121022010
:1052000001F0CAFD01268DF8046000248DF80640E7
:105210000327DFF848804FF480758DF805700095FE
:105220008DF8074069464046FFF773FE2946404621
:10523000FFF724FF8DF804608DF806406D008DF8AF
:10524000057000958DF8074069464046FFF761FEFE
:1052500029464046FFF712FFBDE8FC8100040240EA
:105260002DE9F041002402F0EBFD104D0127C5F8B7
:10527000A0720026B0466006040EC5F8A472052090
:1052800007F0B6FD02F0C8FDD5F8200208B1641C95
:10529000E4B2C5F8A482052007F0AAFD761CF6B298
:1052A000082EE8D32046BDE8F0810000008040428F
:1052B0002DE9F041064602F0C3FD0F4C0027C4F86B
:1052C000A4723D464FF00108F009C4F8A002700630
:1052D000060E022007F08CFDC4F8A482052007F01A
:1052E00087FDC4F8A472052007F082FD6D1CEDB2A5
:1052F000082DE9D3BDE8F0810080404270B502F08E
:105300009FFD094C0120C4F8A002C4F8A4020520A6
:1053100004F5287407F06CFD00252560052007F0D2
:1053200067FD656070BD00000080404270B502F00E
:1053300087FD094C0020C4F8A0020125C4F8A4523E
:10534000052004F5287407F053FD2560BDE8704082
:10535000052007F04DBD00000080404210B5134C01
:105360002068017A022904D0042902D0062905D038
:1053700015E0FFF765FA2068007A11E04178052909
:1053800009D10178490606D1C07802F0A9FF084882
:105390000068006A804707480068806880470820E6
:1053A00021680872BDE8104001F0BEBC90020020E8
:1053B000980200209402002010B5AA2000F016FDEB
:1053C000154C6080AC2000F011FDA080AE2000F0F4
:1053D0000DFDE080B02000F009FD2081B22000F03A
:1053E00005FD6081B42000F001FDA081B62000F031
:1053F000FDFCE081B82000F0F9FC2082BA2000F02A
:10540000F5FC6082BC2000F0F1FCA082BE2000F020
:10541000EDFCE08210BD0000EC020020F0B500239E
:105420000A24302537261F4611E000BFB4EB107F59
:1054300002D905EB107C01E006EB107C01F813C0EB
:1054400001EB430C00015B1C8CF80170DBB2934252
:10545000ECD3F0BD81070CD16421B0FBF1F201FB6C
:10546000120141B94FF4C871B0FBF1F201FB120017
:1054700008B1002070470120704770472DE9F043C4
:10548000012185B0084601F087FC0121042001F0CC
:1054900083FC4FF400400025DFF8F09000908DF879
:1054A000045002268DF8076069464846FFF731FD33
:1054B00037038DF80450012400978DF807406946A2
:1054C0004846FFF726FD0121084601F07DFC012139
:1054D000042001F061FCDFF8B8808DF804500097DB
:1054E0008DF8076069464046FFF713FD00220D2145
:1054F0004046FFF7B1FD0D21022002F09DFE02970C
:105500008DF80C5008278DF80D708DF80E4002A80C
:10551000FFF756FC28208DF810008DF811508DF8FB
:1055200012408DF8134004A800F0CCFF012108467A
:1055300001F032FC8DF8045000948DF80760694644
:105540004846FFF7E6FC002211464846FFF784FD77
:105550000021084602F070FE8DF80C508DF80D7099
:1055600002948DF80E4002A8FFF72AFC06208DF861
:1055700010008DF811508DF812408DF8134004A8DA
:1055800000F0A0FF05B0BDE8F0830000000002407D
:10559000000802402DE9F0410020FFF76EFF6E4C3D
:1055A00001226E4963786E48002653B1D0F83C5210
:1055B000012D0BD0D0F8345245B1D1F83452012D21
:1055C00004D0D0F83C72FF25DFB121E06670A670F0
:1055D000D0F83C32012B07D0D0F8340230B1D1F8EA
:1055E0003402012807D0A6E0E270A4E00120FFF712
:1055F00044FF022003E00120FFF73FFF0320E0709B
:1056000099E0D0F83472012F02D1D1F834720FB181
:10561000B3B190E062702670A670E078012804D0E3
:10562000022809D0032809D085E0E5700120FFF7A2
:1056300024FF0320BDE8F081E5705CE0E57073E0D5
:10564000D0F8342233273AB9D0F83C22012A03D1CA
:10565000D1F83422012A0FD0A670D0F83C22012ABA
:105660002ED0D0F834723F4B0B201A22BFB3D1F8A2
:10567000341201294DD05EE0A1783BA003F0BCFEBE
:105680004048267000780028A07807D0322801D240
:10569000401CA070C0B232280BD04CE04B2801D285
:1056A000401CA070C0B24B2845D1E5704C20A070C2
:1056B00001E0E570A7700120FFF7DFFE0620B9E7E3
:1056C0002078192801D2401C2070C0B2192832D18C
:1056D000E57027700120FFF7D0FE0420AAE7FFE75E
:1056E0002178491CC9B221701B78FF2B08D00A29E8
:1056F00021D3E57020700120FFF7BFFE022099E75B
:10570000192918D1E57022700120FFF7B6FE072095
:1057100090E72178491CC9B221701B78FF2B08D073
:105720000A2908D3E57020700120FFF7A6FE0120AA
:1057300080E7192904D00120FFF79FFE002079E7B8
:10574000E57022700120FFF798FE0F48006880F88E
:10575000336005206EE70000100300200000414286
:1057600000004042FE0100200A0D206B65795F7049
:10577000726573735F7374617462795F636E7420B2
:105780003A256400F7010020180000207CB50121B3
:10579000084601F001FB01208DF8040000208DF87F
:1057A000060003218DF80510074D4FF480448DF855
:1057B0000700009469462846FFF7ABFB21462846C0
:1057C000FFF75AFC7CBD0000000002400448817ACB
:1057D000044809B1052100E00121016003F050B93E
:1057E000E40C0020D001002008B1012070470949D5
:1057F00047F6F870086008394FF4007008600839FF
:105800000548086005490120096881F83800002032
:10581000704700002C00002000F0FF00180000205E
:10582000002108B1012070470846704710B51446A2
:1058300008B1012010BD1A46204602F05FFB00208F
:1058400010BD10B5144608B1012010BD1A462046FF
:1058500002F0AAFB002010BD0D4900B509680A78C6
:1058600002F07F02212A08D1FE2806D1488820B9FB
:10587000888810B9C888012801D0022000BD0548D9
:10588000886100204882FFF78BFC002000BD0000EB
:1058900090020020A1510008014902F0C3BF00009E
:1058A00048010020014902F0BDBF00004001002076
:1058B00005490968C978052901D900207047034ABC
:1058C00002EBC10102F0AEBF900200208001002077
:1058D00009B9002800D00220704700000F4910B518
:1058E00009680A7802F07F02212A07D1FF2805D132
:1058F000488818B9888808B9C88808B1022010BD3E
:105900000120FEF7FDFE0220FEF7E6FE05490448F1
:10591000086005490020087010BD000090020020BA
:1059200055534243A4050020D800002070B53048EC
:105930000025314985722F480968C0794872284688
:1059400002F0C6FC4FF40071002002F07DFD202122
:10595000002002F061FD1821002002F0E5FC274C38
:10596000002014F82C1F02F0EFFC5821002002F058
:1059700035FD0020FEF7D8FE002002F01DFD0021BD
:10598000012002F061FD9821012002F027FD202175
:10599000012002F041FD0021012002F0F5FC002170
:1059A000022002F051FDD821022002F0BDFC217836
:1059B000022002F0C9FC4FF44051022002F0E4FC46
:1059C0000021022002F028FD2178002002F0BCFC1A
:1059D000002002F0F1FC002002F082FC08490120C6
:1059E00008600949074808600848057070BD000054
:1059F000E40C0020D68C0108900200205001002009
:105A0000D001002055534243A4050020D8000020B7
:105A10007047704710B5FFF7D1FB054800240068B8
:105A2000847201F0A3F903F035FC0248046010BD54
:105A300090020020D00100202DE9F04389468046E5
:105A400002F00300042101EBC00614461D4697082E
:105A5000184600F029F8C5F1040008FA00F10F20FB
:105A6000E84000EA0900084300F00F0201204FF06F
:105A7000E021202C06D2D1F80031A0400343C1F828
:105A8000003106E0D1F80431203CA0400343C1F8C6
:105A90000431B80000F1E020D0F8041FB2401143F7
:105AA000C0F8041FBDE8F083072181430A020549BD
:105AB00008684FF6FF031840034B18431043086073
:105AC000704700000CED00E00000FA0504480549AD
:105AD0000068884202D00220FEF7E8BA7047000052
:105AE000A405002055534243174B10B518780228DF
:105AF00019D04FF44054032820D0042801D00528A1
:105B000021D1002018702146022002F03DFC022025
:105B1000FFF716FBB0F5805F15D12146BDE81040B8
:105B2000022002F031BC0948C17B28290BD1D3E9FE
:105B30000112407BBDE8104002F054B80121002062
:105B400002F054FDE9E710BDD8000020A4050020B4
:105B500070B5154C0220A4F14001E57B03F0AAFBCF
:105B600012494880087818B1012805D0022006E0C3
:105B7000BDE87040FEF7EEBA2A2D0DD00120FEF7E9
:105B800095FA607B2422052102F04EFDBDE87040AD
:105B90000021022002F02ABD8A68607B4968BDE8C6
:105BA000704002F007B90000A4050020D8000020D2
:105BB000094810B50068807A00280BD007490520F5
:105BC00008600120FEF79CFD0220FEF785FD0449D8
:105BD0000020087010BD000090020020D0010020BD
:105BE000D80000200149042008607047D00100203F
:105BF0000246002009B1B2F9BE00C1F1600105E022
:105C000032F91130834200DB1846491CC9B26029C1
:105C1000F6D370470246002009B1D2F87C01C1F1E9
:105C2000600105E052F82130834200DB1846491C30
:105C3000C9B26029F6D3704701A003F0DDFBFBE792
:105C4000232300000246002009B1B2F9BE00C1F1D1
:105C5000600105E032F91130834200DC1846491C2E
:105C6000C9B26029F6D370470246002009B1D2F8C4
:105C70007C01C1F1600105E052F82130834200DC73
:105C80001846491CC9B26029F6D370472DE9F74F71
:105C900081B0044600900398884690F800904078C0
:105CA000B9F10C0F05D009FB00F1C80882460025A8
:105CB00029E000EB400080000621B0FBF1F0F5E7A1
:105CC000039800262844C778009809EB000B380693
:105CD00008F0FF01E0B201D5012200E0002200F04F
:105CE000D5FC7806641C070EA4B2A34505D108F1C3
:105CF00001001FFA80F8009C03E0761CB6B2082E63
:105D0000E5D36D1CADB25545DAD3BDE8FF8F000079
:105D10002DE9FC4F8846009092F800A05178044687
:105D20000AFB01F00321B0FBF1F09346002501903E
:105D300023E000BF0BEB05000099C77800260AEBB3
:105D40000109380608F0FF01E0B201D5012200E0A8
:105D5000002200F09BFC7806641C070EA4B2A1454B
:105D600005D108F101001FFA80F8009C03E0761CC1
:105D7000B6B2082EE5D36D1CADB201988542D9D3D9
:105D8000BDE8FC8F2DE9F84F0C468A462021009192
:105D900015498046002501EB421B04F1100900BFA4
:105DA0001BF8057000263806E1B208F0FF0001D5A7
:105DB000012200E0002200F069FC7806641C070E56
:105DC000A4B2A14505D108F1010054461FFA80F89C
:105DD00003E0761CB6B2082EE5D36D1C0098ADB278
:105DE0008542DDD3BDE8F88FEE9B010870B504460F
:105DF000FFF784FAEE20FEF735F92046FEF732F978
:105E0000FFF77CFAEF20FEF72DF9FFF729FA044699
:105E10000020FEF70FF9FFF723FA05460120FEF7F1
:105E200009F9FFF783FA052006F0CEFF200201B240
:105E300041EA050070BD00000EB5012001F022FA14
:105E40000146204803F0D8FA012001F01BFAA0F522
:105E50004851F13914D001F0E7F81B48016801916D
:105E60004068029000200090684601F0E3F910B904
:105E700016A003F0C1FAFEF70FF801F0ABFA0EBD61
:105E80005B2001F023F808B120A004E05A2001F0C3
:105E90001DF810B126A003F0AFFA2EA003F0ACFA63
:105EA0000121080700F084FF012000F01BFF01F032
:105EB0004DFB4FF4807001F0A9F801F03BFB01F0BD
:105EC000D5F80EBD24F10108140300200A0D20208E
:105ED0002020202020202F215C2A2A2A2A2A205212
:105EE0005443205072657363616C657220436F6E1A
:105EF000666967206661696C6564202A2A2A2A2AF5
:105F00002A2A2A2F215C200A0D0000000D0A2050A9
:105F10006F776572204F6E205265736574206F63D2
:105F20006375727265642E2E2E2E0A0D000000001D
:105F30000D0A2045787465726E616C205265736538
:105F400074206F636375727265642E2E2E2E0A0D97
:105F5000000000000D0A204E6F206E6565642074FD
:105F60006F20636F6E666967757265205254432EA9
:105F70002E2E2E0A0D00000003460DE002782A2A7C
:105F800003D0202A01D37A2A01D9FF2070472C2A76
:105F900001D1491EC9B2401C0029EFD1C01AC0B2BC
:105FA0007047000038B50A46054614A11046FDF7B3
:105FB000E1F804460621FFF7DFFFFF2805D0204463
:105FC000694600F01BFA85F8650007212046FFF7B7
:105FD000D3FFFF2805D02044694600F00FFA85F86A
:105FE000660009212046FFF7C7FFFF2804D02044A0
:105FF000694600F003FAE86738BD000024475047BF
:1060000047410000F8B50A46064624A11046FDF7B0
:10601000B1F805460221FFF7AFFFFF2805D028445D
:10602000694600F0EBF986F873000024E01CC1B269
:106030002846FFF7A1FFFF280AD02844694600F050
:10604000DDF93119641CE4B281F867000C2CEDD342
:106050000F212846FFF790FFFF2805D02844694606
:1060600000F0CCF9A6F8740010212846FFF784FF51
:10607000FF2805D02844694600F0C0F9A6F876004C
:1060800011212846FFF778FFFF2805D028446946EC
:1060900000F0B4F9A6F87800F8BD00002447504796
:1060A000534100002DE9F84F0C4682464FF000089E
:1060B00035A12046FDF75EF80546C079032130384A
:1060C000C7B22846FFF758FFFF2805D02844694685
:1060D00000F094F98AF80000002651E02AA1204639
:1060E000FDF748F8044600254FF0040B0BEB850044
:1060F000C1B22046FFF740FFFF283ED0204469464A
:1061000000F07CF908EB48020AEB420989F802002A
:10611000052000EB8500C1B22046FFF72DFFFF28C8
:106120002BD02044694600F069F989F80300062065
:1061300000EB8500C1B22046FFF71EFFFF281CD0F0
:106140002044694600F05AF9A9F80400072000EB42
:106150008500C1B22046FFF70FFFFF280DD0204475
:10616000694600F04BF989F806006D1C08F1010042
:10617000EDB200F0FF08042DB8D3761CF6B2641C13
:10618000BE42ABD3BDE8F88F2447504753560000BA
:106190002DE9F8430A46044670A11046FCF7EAFFD1
:1061A00005460121FFF7E8FE42F210764FF0640841
:1061B000FF281CD02844694600F020F907469DF8C6
:1061C00000100A2000F012F9B7FBF0F1B1FBF6F075
:1061D00084F854004046B1FBF0F2B2FBF0F308FB48
:1061E000132308FB121084F8553084F8560003215D
:1061F0002846FFF7C1FEDFF86C91FF283BD028440A
:10620000694600F0FBF807469DF80000801CC1B20B
:106210000A2000F0EBF8B7FBF0F0A0659DF8000055
:10622000801CC1B20A2000F0E1F8B7FBF0F100FBDE
:106230001170FDF73BFA07469DF80000C0F106001B
:10624000C1B20A2000F0D2F8FDF730FA3946FDF766
:1062500009F84946FDF738F8074606210A2000F0FC
:10626000C5F8A16D4843FDF721FA3946FCF7A2FFB6
:10627000FDF758FAA06504212846FFF77DFEFF28A8
:1062800002D0285C84F85C0005212846FFF774FEE4
:10629000FF283BD02844694600F0B0F807469DF837
:1062A0000000801CC1B20A2000F0A0F8B7FBF0F09B
:1062B00020669DF80000801CC1B20A2000F096F80C
:1062C000B7FBF0F100FB1170FDF7F0F907469DF800
:1062D0000000C0F10600C1B20A2000F087F8FDF707
:1062E000E5F93946FCF7BEFF4946FCF7EDFF0746E6
:1062F00006210A2000F07AF8216E4843FDF7D6F90E
:106300003946FCF757FFFDF70DFA206606212846AF
:10631000FFF732FEFF2802D0285C84F864000921D0
:106320002846FFF729FEFF2816D02844694600F0CA
:1063300065F8B0FBF6F184F853104146B0FBF1F27A
:10634000B2FBF1F308FB132308FB120084F8523070
:1063500000F5FA60A4F85000BDE8F88324475052D5
:106360004D4300000000704238B50A4604461DA1A6
:106370001046FCF7FFFE05460721FFF7FDFDFF284D
:1063800014D02844694600F039F8C4F880009DF81C
:10639000000003280AD2C0F10300C1B20A2000F0B5
:1063A00025F8D4F880104843C4F88000012128461D
:1063B000FFF7E2FDFF2813D02844694600F01EF8DD
:1063C000C4F884009DF80000032809D2C0F103003E
:1063D000C1B20A2000F00AF854F8841F4843206034
:1063E00038BD0000244750565447000002460120A3
:1063F00000E05043491EC9B2FBD270472DE9F04F6F
:106400004FF0000A8B468046D146554654465646C4
:1064100001782D2902D146F00206401C01782C2972
:1064200009D02A2907D031B12E290AD030390A29BA
:106430000AD300252C46B00701D508F10108002732
:1064400018E046F00106401CF10702D0641CE4B2DB
:1064500001E06D1CEDB2401CDAE7E81B401EC1B242
:106460000A20FFF7C3FF18F80710303900FB01AA14
:106470007F1CFFB2AF42F0D3062C00D906248BF864
:10648000004000270EE0E01B401EC1B20A20FFF7CB
:10649000ADFFEA1902EB08014978303900FB019998
:1064A0007F1CFFB2A742EED321460A20FFF79EFFD2
:1064B0000AFB0090B10700D54042BDE8F08F70475D
:1064C0007047000070B50F23C47801780122F4B141
:1064D000144C2468457804F4E064C4F5E064240AAC
:1064E000C4F10406E3408478B5401C402C4301F11C
:1064F000E021230181F80034007800F01F018A4078
:106500004009800000F1E020C0F8002170BD01F0DA
:106510001F0082404809800000F1E020C0F880217F
:1065200070BD00000CED00E002490843024908601C
:10653000704700000000FA050CED00E0024A11402F
:10654000014302480160704780FFFF1F08ED00E033
:1065500070B52F4D2868017844784A0606D001F0BE
:106560007F00012828D002282BD035E0092C06D046
:10657000052C07D0032C0ED0012C14D02CE002F0F7
:10658000BDF928E0C1787F292ED8817861BB818848
:1065900051BB807A27E0C17801291DD18088D8B904
:1065A00002F0C8F917E0C178012915D1818899B99D
:1065B000407A80060AD40FE00B2C0DD102F010FABD
:1065C00009E0012C02D0032C03D005E002F098F87A
:1065D00001E002F0C1F958B10E4920460968496945
:1065E0008847032802D018B108200DE009200BE0ED
:1065F000094A062000211268084B120403EBD2322C
:106600005160074A302111802968087270BD00006E
:106610009002002094020020505C00400060004086
:10662000A002002010B40021084B0A465FF00000D1
:1066300003EBC004401CC0B262548028F8D3491C4C
:10664000C9B20829F2D310BC00F022B9340D0020E1
:1066500000B500218D2000F05FFA0021102000F02D
:106660005BFA0021AE205DF804EB00F055BA00B5EE
:1066700000218D2000F050FA0021142000F04CFA87
:106680000021AF205DF804EB00F046BA10B57F287A
:1066900016D83F2914D80723A3EBD10301F0070133
:1066A000C1F107040121A140064CDBB204EBC0009C
:1066B000002AC25CC9B201D00A4300E08A43C25436
:1066C00010BD0000340D002070B515460C4606467E
:1066D00005E0E1B2F0B20122FFF7D8FF641CAC4242
:1066E000F7DD70BD70B515460C46064605E0E1B213
:1066F000F0B20122FFF7CAFFA41CAC42F7DD70BD67
:106700002DE9F0431E46174688460546DDF81C90E5
:106710000CE0444606E04A4621462846FFF7B6FF0D
:10672000641CE4B2B442F6D96D1CEDB2BD42F0D99E
:10673000BDE8F0832DE9FC410121022000F02CFB93
:106740000121042000F028FB0120FEF796FE012421
:106750008DF804400025FF208DF806504A4F009028
:106760008DF8074003268DF8056069463846FEF728
:10677000D0FB8DF804404FF4F8408DF8065000909F
:106780008DF807408DF8056069463846FEF7C1FB75
:106790003D481430018847F6FF42114301803B4ECB
:1067A000C6F8A842322006F52A7606F00DFB3560C1
:1067B000322006F009FB34600021AE2000F0ACF975
:1067C0000021D52000F0A8F90021802000F0A4F9D4
:1067D0000021A82000F0A0F900213F2000F09CF942
:1067E0000021D32000F098F90021084600F094F928
:1067F0000021402000F090F900218D2000F08CF95C
:106800000021142000F088F90021202000F084F9F4
:106810000021022000F080F90021A02000F07CF986
:106820000021C82000F078F90021DA2000F074F986
:106830000021122000F070F90021812000F06CF995
:106840000021FF2000F068F90021D92000F064F950
:106850000021F12000F060F90021DB2000F05CF95C
:106860000021302000F058F90021A42000F054F954
:106870000021A62000F050F90021AF2000F04CF9D3
:10688000FFF7D0FEBDE8FC810004024000804042DA
:1068900070B5114E002400BF04F1B000C0B2002159
:1068A00000F03AF90021084600F036F900211020E6
:1068B00000F032F95FF0000506EBC5000121005D34
:1068C00000F02AF96D1CEDB2802DF5D3641CE4B202
:1068D000082CE1D370BD0000340D002070B5114EBE
:1068E000022400BF04F1B000C0B2002100F014F98E
:1068F0000021084600F010F90021102000F00CF9EA
:106900005FF0000506EBC5000121005D00F004F911
:106910006D1CEDB2802DF5D3641CE4B2062CE1D3DE
:1069200070BD0000340D00202DE9F04F00271E46F9
:106930000C46824688462A2B04D0203A02F0FF09F2
:10694000002542E0303A02F0FF09002510E00C2E4D
:1069500004D0102E08D02A2E0AD011E0204909EBCD
:10696000490001EB80000AE01E4901EB091006E036
:10697000C9EBC9001C4900EB400001EB4000475D3A
:106980004FF0000B380601D5099A02E0099878B15A
:10699000002221465046FFF779FE7806641C070E58
:1069A000E4B22A2EA4EB080004D0B04211D003E0D8
:1069B0000122EEE718280CD00BF1010000F0FF0BCC
:1069C000BBF1080FDED36D1CEDB2B542BFD3BDE8FD
:1069D000F08F0AF10100444600F0FF0AF3E70000DF
:1069E0008A910108FE950108BC8F0108F8B516468A
:1069F0000D460446012714E07A2C02D900241035F4
:106A0000EDB23A2D03D900242546FFF70BFE00977F
:106A10003278102329462046FFF786FF0834E4B277
:106A2000761C30780028E7D1F8BDF8B516460D463B
:106A30000446012714E07C2C02D900240C35EDB269
:106A40003E2D03D900242546FFF7ECFD0097327850
:106A50000C2329462046FFF767FFA41DE4B2761CED
:106A600030780028E7D1F8BDF8B516460D46044643
:106A7000012714E0702C02D900241835EDB2322D14
:106A800003D900242546FFF7CDFD009732782A234D
:106A900029462046FFF748FF1034E4B2761C3078D0
:106AA0000028E7D1F8BDF8B515460E460446012783
:106AB0002BE07A2C02D900241036F6B23A2E03D9F4
:106AC00000242646FFF7AEFD2A783A2A01D1A41EFB
:106AD000E4B21023314620460097FFF725FF2878BF
:106AE0003A280FD1A41FE4B2009715F8012D102306
:106AF00031462046FFF718FFA41D15F8010FE4B238
:106B00003A2806D00834E4B26D1C28780028D0D189
:106B1000F8BDA41DF7E700000A4A138803F47F4379
:106B2000034313800848C0F8B0120021C0F8AC122B
:106B3000C0F8B4120121C0F8B412C0F8AC12C0F809
:106B4000B0127047140402400080404210B50F4C50
:106B50002068007A022811D004280FD0032804D01E
:106B6000052802D0072805D008E0FDF7C3FE2068FD
:106B7000007A04E006480068C06880470820216861
:106B80000872BDE8104000F0CFB80000900200206D
:106B900094020020064B521C520803EB410105D021
:106BA00031F8043B20F8023B521EF9D17047000037
:106BB00000600040F0B5012189B0C825084600F00A
:106BC000F7F80121084600F0E7F802208DF80400EC
:106BD000002400908DF8064001268DF80760032000
:106BE0001C4F8DF8050069463846FEF792F90122E0
:106BF00011463846FEF730FA17481849EF06006884
:106C0000ADF81040B0FBF1F0401E6900ADF808008F
:106C10000391ADF80A4002A9384602F02BF8602033
:106C2000ADF81400ADF81C40ADF8166005A9384663
:106C3000069501F0F7FF0821384602F011F800210F
:106C4000384601F0DBFF0021384601F0E1FF09B0D2
:106C5000F0BD0000000002406C02002000350C0076
:106C600002490A6842EA80000860704700700040EC
:106C700009490028086806D040F00100086008684B
:106C800040F4804005E020F480400860086820F06F
:106C9000010008607047000000700040074801686C
:106CA00041F004010160016841F002010160044803
:106CB000016841F00401016030BF7047007000407E
:106CC00010ED00E0034A0146002052680A4200D05D
:106CD00001207047007000400149086170470000C2
:106CE00000000E42014908627047000000000E4299
:106CF000014948627047000000000E42044A1168D2
:106D000021F4C051014321F00C00106070470000D5
:106D10000070004008B5024A10440090016008BDB0
:106D2000A0000E42704700000C4810B590F82C10DF
:106D3000002001F009FB0A480068007A082802D008
:106D4000092809D006E007494FF480500880064919
:106D500010200880002010BD012010BD500100202F
:106D6000900200209E020020A002002010B5012009
:106D700002F0EAF90648012101600021054A01609C
:106D8000031D19604FF4E05111800160002010BD17
:106D9000405C00409C020020044A0029116801D098
:106DA000014300E081431160704700001C3802403D
:106DB000044A0029116801D0014300E081431160B9
:106DC0007047000024380240044A0029116801D0AD
:106DD000014300E081431160704700002038024009
:106DE0000D48016841F4807101600B4908310A685F
:106DF0000A4B1A400A600268094B1A400260026896
:106E000022F480220260086820F47D0008600020DF
:106E1000091D086070470000003802400CC0FF8860
:106E2000FEFFFEEE30B5254A1168A2F1040411F010
:106E30000C034FF4004105D0042B09D0082B09D0D6
:106E40000C2B09D02368C3F342335B1C994018E034
:106E50001B4916E01B4914E01168136801F4701116
:106E6000194C03F4400304EB91410978012404EB2D
:106E70009353146814F4803F1DD0124C6143B1FB4E
:106E8000F3F1016011680F2303EA11110E4B09336E
:106E90005C5C0168E14041601468072505EA142440
:106EA0001C5D21FA04F48460126805EAD2229A5C1F
:106EB000D140C16030BD024CE0E70000083802401C
:106EC0000024F40000127A00A202002001460020F3
:106ED0004A09012A09D0064A126801F01F0101235C
:106EE0008B40134200D001207047014A343AF3E747
:106EF000343802400248006800F00C00704700007F
:106F000008380240034A116821F0F0010143116082
:106F10007047000008380240024900220A700870D9
:106F200070470000023802400149086070470000C5
:106F300000004742024900220A70087070470000B2
:106F4000353802400149086070470000800647421A
:106F5000034A116821F46041014311607047000049
:106F600004380240034A116821F4E06101431160D2
:106F7000704700000838024003490A6822F4605252
:106F800042EAC000086070470838024001490860C2
:106F900070470000D8064742C0F30141032907D1DA
:106FA000094A116821F0C04300F0C0411943116043
:106FB000054934310A6822F440320A600A6800F454
:106FC000403002430A60704700380240034A1168AB
:106FD00021F00301014311607047000008380240AE
:106FE000010901EB810100F00F0000EB4100C0B28C
:106FF0007047002103E0491C0A38C9B2C0B20A2810
:10700000F9D2090740EA116070470000C0F3100090
:1070100040F08000C1430348026802F0800211433F
:10702000016070470C28004010B501210807FFF7E8
:10703000BFFE0120FFF756FE0120FFF77BFF49202E
:10704000FFF744FF0028FAD04FF48030FFF7A4FF89
:107050000548FF2141607F2101600120FFF796FF75
:10706000BDE8104000F072BA14030020014900206E
:1070700000F070B82803002008B5002000900C48EC
:107080000168490612D44FF0FF31016043140168D2
:10709000009A01F04001521C00929A4201D000294E
:1070A000F5D00068400601D4002008BD012008BDCD
:1070B0000C2800400248016821F0800101607047FF
:1070C0000C28004010B50C460200214BC9782088DE
:1070D0001AD0491CE170FEF7BDF910B1A078012863
:1070E00010D0A078C05CE178814228D90120E070FE
:1070F000A178491CC9B2A1700C2920D9A0702088A0
:10710000401C1BE01D20EEE7491E11F0FF01E1705D
:1071100015D1A178491EA170FEF79CF910B1A07895
:10712000012805D0A078C05CE070A07810B106E01E
:107130001D20F9E70C20A0702088401E2080E278F6
:10714000A178208800F050F82071002010BD0000C8
:1071500025EC010810B50C460E4909680E4A11408D
:107160000A0CE270C1F30423637001F03F03A370C3
:10717000C1F34231217000280BD11046FFF730FFD8
:10718000E0706078FFF72CFF6070A078FFF728FFB1
:10719000A07010BD042800403FFFFF0010B50C4652
:1071A0000F4909680F4A1140C1F305422270C1F32B
:1071B0000623637001F07F03A370402303EA1141AB
:1071C000E17000280BD11046FFF70AFF20706078AD
:1071D000FFF706FF6070A078FFF702FFA07010BDF8
:1071E000002800407F7F7F0030B56424B0FBF4F5B9
:1071F000EBB204FB1500132B01D96430C0B200EBD5
:1072000090040723B4FBF3F503FB1544084D224417
:107210000D44800715F8015C2A4492B203D103297A
:1072200001D2521E92B2B2FBF3F003FB102030BD2C
:107230001AEC010870B5124D04460026CA202860D9
:1072400053202860FFF718FFA8B10D481C380168CB
:1072500021F0400101600168226811430160084883
:10726000A168143801600168A28841EA0241016006
:10727000FFF720FF0126FF202860304670BD000088
:107280002428004008B5034901EB80000090006805
:1072900008BD00005028004070B50C460100607821
:1072A0004FF000062AD0FFF79BFEA078FFF798FE6C
:1072B000A078E17840EA014560782178000240EA50
:1072C00041300543194CCA20206053202060FFF74D
:1072D000D3FE78B116480540144820380560FFF702
:1072E000E9FE12481C380068800602D400F02EF92E
:1072F00000B10126FF202060304670BDC10603D5D5
:1073000020F010000A306070E078FFF772FE05048C
:107310006078FFF76EFE45EA0025A078FFF769FE6A
:107320000543207845EA4035CCE70000242800409A
:107330003FFFFF002DE9F041244F0C4602004FF0C3
:10734000000620783A6831464FEA426204D0002AAB
:1073500015DAFFF745FE13E0002A00DBE170FFF7C6
:1073600048FE05046078FFF744FE45EA0025A07852
:10737000FFF73FFE0543E07845EA00450AE0E1708B
:10738000A078217840EA01456078E178000240EA7F
:10739000014005430D4CCA201C342060532020605E
:1073A000FFF76AFE68B10A480540084808380560DA
:1073B000FFF780FE3868800602D400F0C7F800B1FD
:1073C0000126FF2020603046BDE8F08108280040FB
:1073D0007F7F7F0010B51E4802F00EF81D49002087
:1073E000C870FFF7A7FF002829D01BA002F004F8FF
:1073F00000F0A0F843F2F021012000F0CBF8204883
:1074000001F0FAFF1FA001F0F7FF12490020091D4B
:10741000FFF742FF002816D022A001F0EDFFFFF792
:1074200025FE43F2F121012000F0B4F80120FFF71E
:1074300029FF0146BDE8104024A001F0DDBF29A0CE
:1074400001F0DAFFDBE731A001F0D6FFEEE7000044
:1074500094F00108240300200A0D3E3E2021212043
:10746000525443205365742054696D6520737563CD
:10747000636573732E202121203C3C0A0D0000001F
:10748000DCF001082020506C656173652053657441
:10749000205765656B446179202830312D303729BC
:1074A0000A0D00000A0D3E3E2021212052544320A7
:1074B00053657420446174652073756363657373E9
:1074C0002E202121203C3C0A0D0000000A0D202026
:1074D0005254435F424B505F445231203A2025784A
:1074E0000A0D00000A0D3E3E202121205254432067
:1074F0005365742054696D65206661696C65642EFE
:10750000202121203C3C0A0D000000000A0D3E3ED7
:107510002021212052544320536574204461746516
:10752000206661696C65642E202121203C3C0A0D97
:107530000000000010B503490020FFF72FFE0248AD
:10754000006810BD240300200428004018B5002066
:107550000F490090CA200860532008600C48183872
:10756000026822F0A0020260C4130268009B02F0CD
:1075700020025B1C0093A34201D0002AF5D00068D2
:10758000800601D5012000E00020FF220A6018BD1E
:107590002428004008B5034A02EB800000900160F7
:1075A00008BD00005028004070B5274C0646274D06
:1075B000207810B1012808D028E055F82600414372
:1075C0005043C4E9031001202070606848B320488C
:1075D000E16940220144812001F07EFE606840386C
:1075E0006060E0694030E0614021012000F006FF6A
:1075F0003021012000F010FFE0684030E060206999
:107600004038206113488168403981602069002832
:1076100006D16060E061104A0321E06011702070C3
:1076200070BD35F826000A4A83B23046E168FEF79D
:10763000FDF840220649812001F04EFE55F8260053
:10764000403860604020CEE7340000202400002055
:1076500064030020C4050020D80000202DE9F04F6D
:107660008DB0002001901C2104A8FBF778FD904DFF
:10767000904E914A687B0027316814684FF00208E9
:1076800005285CD2DFE800F05B03C6D4E4002F637A
:10769000BB4694F87300012702286FD3A06D5FEA00
:1076A000000A6BD0206E0028FBD0FBF7FFFF81465D
:1076B0005046FBF7FBFFDFF804A200905146484616
:1076C000FBF702FEE86551460098FBF7FDFD2866D2
:1076D00014F85C0F6876207AA8765C46A5F81EB090
:1076E00004F022FD3068B14690F83E1031B3704985
:1076F000683109880F2976D3714E72A104A8F278F7
:10770000737802F5FA6201F087FE04A970A001F017
:1077100073FE04A9019806F0C5FA04A805F0B0FEAE
:10772000014670A001F068FED9F8001073488A7C09
:1077300042B1022A14D0012A21D032E06C730DB07C
:10774000BDE8F08F81F83A40827841780078B378CC
:10775000CDE90212CDE900307378F27868A11BE020
:1077600081F83A80827841780078B378CDE90212C6
:10777000CDE900307378F27869A10DE047E081F837
:107780003A70827841780078B378CDE90030CDE95D
:1077900002127378F2786AA104A802F5FA6201F085
:1077A0003BFE04A96EA001F027FE04A972480DF06B
:1077B000E6FAE87618B171A001F01EFEBFE7D9F82D
:1077C0000000807C022802D001280DD00FE00720A5
:1077D0008DF810008DF811000CAB022204A9664848
:1077E00006F0E4FC03E00FE004A807F0ABFC542033
:1077F0000EF034FC686BA86385F80D8021462920C3
:107800000B940FF037FF9AE780F8397097E781F80B
:10781000397094E794F87300022890D3A06D002883
:107820008DD0206E00288AD054200EF017FC86E7F9
:1078300043200EF013FC0BA929200FF00FFF0B992A
:107840002920491C0B910FF015FF85F80D8076E774
:1078500091F83E0098B194F87300022806D3A06D09
:1078600020B1206E10B154200EF0F8FB11F0EEF9AB
:107870000020E96A0FF0FEFE45A001F0BDFD6F7328
:10788000E87E00289AD1306890F83A0001280BD1A0
:1078900044A1394806F036FA45A1374806F032FAD5
:1078A00045A1354806F02EFA334805F0DBFC46E7E3
:1078B000EC0100201800002014000020002474496E
:1078C00028030020253034642D2530326400000068
:1078D000747261636B5F66696C65203A2573200D75
:1078E0000A000000747261636B2066696C65206435
:1078F00069722066722025640D0A000024030020AE
:10790000253034642D253032642F25303264253003
:10791000326425303264253032642E4353560000E1
:10792000253034642D253032642F253032642530E3
:10793000326425303264253032642E4750530000C3
:10794000253034642D253032642F253032642530C3
:10795000326425303264253032642E47505800009E
:107960000D0A20747261636B5F66696C65203A254D
:1079700073200D0A200000002C0600206F70656E39
:1079800020617070656E64206661696C64200A0015
:107990000D0A20636C6F73652066696C65200D0AA3
:1079A000200000003C2F74726B7365673E0A000074
:1079B0003C2F74726B3E0A003C2F6770783E0A00C1
:1079C0000D480E4902680A600D4B42681A600D4B63
:1079D00082681A600C4BC2681A600269CA60084A61
:1079E00041690C321160074A81690C321160064905
:1079F000C0690C3108607047C002002000000240DE
:107A00000004024000080240000C02402DE9F04151
:107A1000214C072800D0207022781F4D0627052111
:107A200004261E48062A0BD2DFE802F0030C1116CA
:107A30001E27686810B12170BDE8F08100F030F8B1
:107A40002770F9E700F02CF82670012022E00220D0
:107A5000607003202070EFE76078401E60706078EF
:107A60000028E9D12670E7E7026892B242F01002DE
:107A7000026021700A206070DEE76178491E617043
:107A800061780029D8D1016889B221F01001016024
:107A9000277000206860CFE7D4010020405C0040E0
:107AA00010B5064C206880B220F004002060FDF77D
:107AB0008DFE4FF43740206010BD0000405C004058
:107AC00070B5184C1A4454F82040A2420DD92A2906
:107AD00002D10220FCF7EAFA0020FCF7E7FA12498B
:107AE000052221208A70087311E0114D0F4C55F8C2
:107AF0002000A2685843824211D02A290DD00020CC
:107B0000FCF7D4FA607B2422052100F08DFD0021D2
:107B1000012000F06BFD002070BD0220F0E7012085
:107B200070BD00002C000020B1000020A405002042
:107B30002400002010B5FDF757FE00280ED008489D
:107B40003A220221407B00F06FFD0121084600F03F
:107B50004DFDBDE810400020FCF7A8BA10BD0000A4
:107B6000A405002008490A7CD20702D00748052155
:107B700005E030B10648C97C242900D9242101F050
:107B8000C3B90448F7E70000A4050020580000200E
:107B9000810000205D00002010B50B4CA06810B1E2
:107BA000207B000601D5002000E00220FCF77EFAD1
:107BB000607B2022052100F037FD0021BDE8104048
:107BC000012000F013BD0000A40500200821014899
:107BD00001F09AB9A90000200421014801F094B9EC
:107BE000A50000202DE9F041164D80461646287864
:107BF0000F4630B1022823D14046BDE8F041FFF7DF
:107C0000D3BC114C13460A46607B2821FFF758FF6E
:107C1000002815D0207B00064FF0020003D5287005
:107C200032463946E8E7FCF741FA607B2422052119
:107C300000F0FAFCBDE8F0410121084600F0D6BC96
:107C4000BDE8F081D8000020A405002010B504464E
:107C5000FDF7CAFD70B115483A220221407B00F0C1
:107C6000E3FC0121084600F0C1FCBDE81040002003
:107C7000FCF71CBA0E480F4950F82420521E100E73
:107C80000870100C4870100A88700B48CA7050F8C1
:107C90002400020E0A71020C4A71020A8A71C8712C
:107CA000BDE810400821034801F02EB9A4050020CA
:107CB0002C000020C30000202400002010B5044642
:107CC000FDF792FD70B114483A220221407B00F08A
:107CD000ABFC0121084600F089FCBDE81040002003
:107CE000FCF7E4B90D480E4950F82420100E087135
:107CF000100C4871100A88710A48CA7150F82400A3
:107D0000020C4A72020A8A72C872BDE810400C2145
:107D1000034801F0F9B80000A40500202C00002061
:107D2000CB000020240000200348C17C122900D988
:107D30001221024801F0E8B8A4050020B10000209B
:107D40000121002000F052BC10B5FDF74DFD70B1CF
:107D50000A483A220221407B00F066FC01210846D5
:107D600000F044FCBDE810400020FCF79FB9012161
:107D7000BDE81040002000F039BC0000A405002040
:107D800010B50B4CA06828B9207C400702D4012113
:107D9000002009E00220FCF789F9607B24220521FC
:107DA00000F042FC00210120BDE8104000F01EBCA4
:107DB000A405002070B5164D2B782BB1012B26D1D0
:107DC000BDE8704001F0B2BA124C13460A46607B1F
:107DD0002A21FFF775FE002819D0207B000608D461
:107DE00001202870BDE870404FF44051022000F09F
:107DF000CBBA0020FCF75AF9607B2422052100F061
:107E000013FCBDE870400021012000F0EFBB70BD05
:107E1000D8000020A40500201CB54FF4807000900D
:107E200000208DF8040003218DF805108DF807005F
:107E300069460248FDF76DF81CBD000000040240D1
:107E40001CB54FF48070009001208DF804000020D4
:107E50008DF8060003218DF805108DF8070069469E
:107E60000148FDF756F81CBD0004024010B5064C51
:107E70000020C4F89002062004F5247400F0A0F954
:107E80000120206010BD00000000404270B50403D6
:107E9000FFF7ECFF00F080F80C4D0020C5F89002D1
:107EA000202005F5247500F08BF9C4F3074000F09D
:107EB00087F9C4F3072000F083F9E0B200F080F9FD
:107EC00001202860BDE8704000F066B80000404224
:107ED00000F006B910B5084C0020C4F89002B92093
:107EE00004F5247400F06CF901202060BDE8104016
:107EF000032004F07DBF0000000040422DE9F04166
:107F0000114E0746002015460C46C6F89002032085
:107F100000F056F9C4F3074000F052F9C4F307200B
:107F200000F04EF9E0B200F04BF9002405E0FF202C
:107F300000F046F93855641CA4B2AC42F7D30120D6
:107F4000C6F89002BDE8F0810000404210B5074C31
:107F50000020C4F89002052004F5247400F030F9E4
:107F6000FF2000F02DF90121216010BD00004042EA
:107F700010B5084C0020C4F89002AB2004F524741E
:107F800000F01EF901202060BDE81040032004F03D
:107F90002FBF0000000040422DE91040FFF7D6FF40
:107FA000C007FBD110BD00002DE9F04FC1F30B0756
:107FB00081B00E0BC7F58054ADF5805D88468246D2
:107FC0001546A24200D81446E94631038B464FF4C9
:107FD00080524846FFF792FF002006E03A1819F851
:107FE0000210FF2903D1401C80B2A042F6D3A04268
:107FF00022D23046FFF74AFF00204B4606E000BF82
:108000001AF80010C219401C995480B2A042F7D34C
:1080100059464FF48052484600F017F8A5420FD059
:10802000281BA244A044002785B24FF48054761C3C
:10803000A542CAD82C46C8E7224641465046EBE73F
:1080400001B00DF5805DBDE8F08F2DE9F0410746E8
:10805000C8B2C0F580740E461546A24200D8144638
:108060004FF4807822463146384600F00DF8A5429C
:1080700008D0281B2744264485B24446A542F1D89F
:108080002C46EFE7BDE8F0812DE9F04115460C469E
:108090000746FFF7EBFE114E0020C6F890020220C3
:1080A00000F08EF8C4F3074000F08AF8C4F307200C
:1080B00000F086F8E0B200F083F8002404E0385DB8
:1080C00000F07EF8641CA4B2AC42F8D30120C6F8DC
:1080D0009002BDE8F041FFF75FBF000000004042A2
:1080E0002DE9FC4101210846FEF756FE0121080357
:1080F000FEF76AFE2020009002208DF80400032580
:108100008DF8055000262C4F8DF8066001248DF85F
:10811000074069463846FCF7FCFE4020009069465F
:108120003846FCF7F6FE8020009069463846FCF79A
:10813000F0FE8DF8044010208DF8066000908DF858
:1081400007408DF8055069463846FCF7E2FE0522E7
:1081500011463846FCF780FF052206213846FCF719
:108160007BFF052207213846FCF776FF134801887C
:108170000180018841F400710180018841F480711F
:108180000180018841F0040101800188018001889B
:1081900041F002010180018841F001010180018864
:1081A000018001880180018841F040010180FF20A9
:1081B00000F006F8BDE8FC810000024000300140FC
:1081C00000210C4A03E0491CC9B2C82909D8138907
:1081D0009B07F8D59081002005E0401CC0B2C8285C
:1081E00001D9002070471189C907F6D09089C0B223
:1081F00070470000003001400D490A8822F0380223
:108200000A8060B101280CD0022808880DD040F007
:1082100038000880088840F04000088070470888CF
:10822000F7E7088840F01000F3E740F01800F0E7A7
:10823000003001407047000010B58A0721F00304A8
:108240000649130F21440F228C689A4094438C6096
:108250008A68984002438A6010BD00000000014017
:1082600005490028486802D040F0010001E020F0F4
:108270000100486070470000000001400B480068A2
:1082800090F8291039B1012907D0002181870849C8
:10829000C97A21B105E01021F8E71F21F6E7012195
:1082A0008187818F03A001F0A7B80000180000208B
:1082B000EC01002053656E645F746F5F676F746FCD
:1082C0005F6C6F77706F7765723A2564200D0A00D6
:1082D000024920F00700086070470000505C004031
:1082E000F0B50E490E4D48F68F770B78002148F215
:1082F000800C0BE0CEB205EB8604D4F8002C3A409B
:10830000324342EA0C02C4F8002C491C9942F1D3D2
:10831000044940F080000860F0BD0000A801002082
:10832000005000404C5C0040054A21F001011268F9
:1083300092B202EBC000034A02EB4000816070473A
:10834000505C0040006000400D4A12683E2992B225
:1083500002EBC0000B4A02EB400209D94809C906EA
:1083600001D1401E80B24FF4004141EA802004E078
:108370004808C90700D0401C800210607047000008
:10838000505C00400C60004082000A480244D2F871
:10839000000C4BF68F731840CB0401D580F480504D
:1083A000890401D580F4005048F280010843C2F8E6
:1083B000000C704700500040810007480144D1F88C
:1083C000000C4BF68F72104080F4405048F280024F
:1083D0001043C1F8000C704700500040054A21F0DE
:1083E0000101126892B202EBC000034A42F8101079
:1083F00070470000505C004000600040044A126872
:1084000092B202EBC000034A02EB400041607047A9
:10841000505C00400060004082000A480244D2F8EC
:10842000000C48F6BF731840CB0601D580F0100051
:10843000890601D580F0200048F280010843C2F887
:10844000000C704700500040820005480244D2F8FA
:10845000000C48F68F1318400843C2F8000C704710
:108460000050004010B50120FEF75EFD2120FEF710
:108470002DFD0028FAD00120FCF708FD0120FCF7B3
:10848000F7FC0120FCF71EFD0120FEF79FFD00BF59
:10849000FEF730FD0428FBD10020FEF733FD00205D
:1084A000FEF76AFDBDE810400020FEF75BBD00004E
:1084B00070B514460D460646FEF792FC0020FCF708
:1084C00001FD0020FCF7D4FC0020FCF7DFFC0120BC
:1084D000FCF7EAFC01210807FEF76AFC4FF4C050E4
:1084E000FEF70CFC1020FEF7EDFB0028FAD1304619
:1084F000FEF72EFD0020FEF769FD00BFFEF7FAFC37
:108500000028FBD115B18020FEF7FCFC0020FEF70F
:108510000BFD0020FEF700FD002C04D1BDE87040EB
:108520000020FEF70FBD70BD0CB500202C49019056
:1085300000900A6842F480320A604FF4A0630A682F
:1085400002F400320092019A521C0192009A12B970
:10855000019A9A42F3D10A6892033FD50120009014
:108560002048026842F004020260026842F00202FF
:108570000260026842F00102026019482430026879
:1085800042F080520260C214174802604268D2066C
:10859000FCD4134808300268026002680260026876
:1085A0000260026822F47D020260026842F4110255
:1085B00002600A6842F080720A600A689201FCD583
:1085C000016821F003010160016841F003010160CD
:1085D0000168C1F381010329FAD10CBD00900CBDE3
:1085E00000380240003C02400070004010B50C46CC
:1085F0000B490A4A0A6008730D22812000F06CFEC4
:1086000008480521002C017007D004210170302199
:10861000BDE810400120FFF7FFBE10BD5553425387
:10862000C4050020D8000020014881700273704703
:10863000B100002010B501210846FEF7C5FB4FF43C
:1086400080242046FCF7A6FB064908200C604871F0
:10865000012088710846FCF7B3FBBDE810400020FC
:10866000FDF7DEB8000000200121C805FEF7A0BB21
:1086700070B516480068174D0004C10B144801443A
:10868000098989B200EB41042868017A09290FD0D1
:108690002178017061784170A088FBF755FD296849
:1086A00048802089FBF750FD29688880A089C88010
:1086B000286801210172C08828B1FCF76DF9BDE876
:1086C0007040FEF731BBFDF743FFF8E7505C004018
:1086D0000060004090020020012080F31388BFF367
:1086E0004F8F05480168054A01F4E06111430160BC
:1086F000BFF34F8FFEE700000CED00E00400FA0529
:108700002DE9F04138480068017811F07F0102D06E
:10871000022905D066E0417A01F0DF0141724EE0A6
:10872000418800295ED10179F1BB4179304D21F0BA
:1087300080040A0605EB84022C4BD2F8002C03D5EA
:10874000C2F30112120102E0C2F3013212031E78D9
:108750002346A64246D93AB3807A28B308064FEAA0
:1087600084000ED52844D0F8000CC0F30110012875
:1087700021D11846FBF7C4FF20463021FFF74CFEFD
:1087800019E04619D6F8000CC0F30130012812D1C7
:108790004BF68F7748F28008A4B11846FBF79CFF90
:1087A000D6F8000C384000E01CE080F4405040EA6D
:1087B0000800C6F8000C0F48006840698047002098
:1087C000BDE8F0810C4890F82C100020FFF7BCFDAC
:1087D000D5F8000C384080F4405040EA0800C5F855
:1087E000000CE8E70220EBE790020020A80100203F
:1087F00000500040980200205001002010B5074CA6
:1088000030B1074800680068804720680A3010BD12
:10881000216801200882002010BD00009002002085
:1088200098020020054A13685A8A10B1086810445B
:1088300070478888801A18820020704790020020B4
:1088400010B5074C30B10748006880688047206841
:108850000C3010BD216801200882002010BD0000EE
:108860009002002098020020204910B5096860B1EC
:108870001F48002202800A7853060AD002F07F02C5
:10888000012A16D0022A16D001E002200882002018
:1088900010BD497A8A06027802D542F0020201E050
:1088A00002F0FD0249060270D1B211D401F0FE01BE
:1088B00010E00F4810BD4A79110713060D4A02EB6C
:1088C0009161D1F8001C07D5C1F3011106E00178D0
:1088D00041F00101017003E0C1F301310129F6D03B
:1088E0000548006800698047E3E700009002002027
:1088F0008C02002000500040980200200A4810B569
:1089000000680A4AC1785278914203D882780AB93D
:1089100082880AB1022010BD817205480068406853
:108920008047002010BD000090020020A801002018
:1089300098020020064810B50068417A41F02001F5
:10894000417204480068C0698047002010BD0000E3
:10895000900200209802002070B51D481D4D03684C
:10896000597921F0800005EB80000C06D0F8004C0E
:1089700021F0800203D5C4F30114240102E0C4F302
:1089800001342403144D2D78954210D95A8872B9B8
:108990006CB19A7A5AB10906D0F8001C48F28002EC
:1089A00007D548F6BF73194081F0100106E0022098
:1089B00070BD4BF68F73194081F480511143C0F89C
:1089C000001C0648006880698047002070BD0000D8
:1089D0009002002000500040A801002098020020D2
:1089E00010B50E4C0E4A20681268C1789269407921
:1089F000904721688A7A22B118B9087908B988782D
:108A000008B1022010BD07480068C0688047206890
:108A10004179C172C1780173002010BD900200201D
:108A2000940200209802002010B501210F20FEF7CB
:108A3000B3F901210807FEF7BBF901210846FEF74B
:108A4000C3F94FF40060FEF759F91020FEF73AF928
:108A50000028FAD1BDE810404FF440514FF00060BB
:108A6000FDF76CBD4FF0E0210428086903D020F029
:108A700004000861704740F00400FAE77047000006
:108A8000104810B5016841F4807101600D4908314A
:108A90000A680D4B1A400A6002680C4B1A400260CB
:108AA000026822F480220260086820F47D000860D9
:108AB000091D00200860FFF737FD064904480860DB
:108AC00010BD0000003802400CC0FF88FEFFFEEE23
:108AD0000030000808ED00E070B5214D2888C0077F
